:1000000095C00000A3C00000A1C000009FC0000078
:100010009DC000009BC0000099C0000097C0000078
:1000200095C0000093C000007EC3000047C40000DC
:100030008DC000008BC0000089C0000087C0000098
:1000400085C0000083C0000081C000007FC00000A8
:100050007DC000007BC0000079C0000077C00000B8
:1000600075C0000073C0000071C000006FC00000C8
:100070006DC000006BC0000069C0000067C00000D8
:1000800065C0000063C0000061C000005FC00000E8
:100090005DC000005BC0000059C0000057C00000F8
:1000A00055C0000053C0000051C000002C034C009C
:1000B0005500460041002000420075006C006B00B6
:1000C0002000560065006E0064006F007200200082
:1000D000440065006D006F0000001A034C005500DD
:1000E0004600410020004C0069006200720061007F
:1000F00072007900000004030904090220000101D4
:100100000080320904000002FFFFFF0007058302A0
:10011000400005070504024000051201100100001F
:100120000008EB036C2001000102DC0111241FBE5A
:10013000CFEFDAE0DEBFCDBF21E0A0E0B1E001C04B
:100140001D92AD30B207E1F734D077C559CF95B1E4
:10015000282F217020959160922395B99BB1282F6B
:1001600020722095906292239BB998B19F778078F6
:10017000892B88B9089584B7877F84BF0FB6F89418
:10018000A895809160008861809360001092600063
:100190000FBE90E080E80FB6F894809361009093D2
:1001A00061000FBE209A289A559A5D9A3F9A479807
:1001B0009DC2CF93DF93CDB7DEB7C054D1090FB640
:1001C000F894DEBF0FBECDBFD6DF81E0C0DF7894EC
:1001D00080E4E82E8E010F5F1F4F94E0D92E23E0BC
:1001E000F22E11D5F8018E2D11928A95E9F7D09251
:1001F000E9008091E80082FFF4CF40E050E060E445
:1002000070E0C801A4D08091E8008B778093E8006B
:10021000F092E90040E050E060E470E0C8014ED0A8
:100220008091E8008E778093E800DBCF80EA8FCF63
:1002300081E08DCFCF9342E361E883E090D1C82F76
:1002400042E360E884E08BD1882311F0C11102C041
:1002500081E801C080E2CF917ACF0895292F33271A
:100260002230310559F02330310569F02130310554
:10027000E9F482E190E02AE131E01CC080E290E004
:100280002AEF30E017C099278130910549F028F016
:10029000029761F4ECEAF0E005C0E6EFF0E002C09E
:1002A000EAEDF0E0849190E09F0104C080E090E0EE
:1002B00020E030E0FA01318320830895CF92DF926D
:1002C000EF92FF920F931F93CF93DF93EC018B017B
:1002D0007A0199D1811132C0E114F10439F0F701AA
:1002E00080819181081B190BC80FD91FC12CD12CFB
:1002F0000115110511F18091E80085FD15C080916F
:10030000E8008E778093E800E114F10449F0F701EA
:1003100080819181C80ED91ED182C08285E00EC035
:1003200072D1882329F30AC089918093F10001508A
:100330001109FFEFCF1ADF0ADBCF80E0DF91CF9109
:100340001F910F91FF90EF90DF90CF900895CF9283
:10035000DF92EF92FF920F931F93CF93DF93EC0105
:100360008B017A0150D1811132C0E114F10439F0CE
:10037000F70180819181081B190BC80FD91FC12C6F
:10038000D12C0115110511F18091E80085FD15C0F2
:100390008091E8008B778093E800E114F10449F044
:1003A000F70180819181C80ED91ED182C08285E07B
:1003B0000EC029D1882329F30AC08091F1008993C6
:1003C00001501109FFEFCF1ADF0ADBCF80E0DF9188
:1003D000CF911F910F91FF90EF90DF90CF900895F4
:1003E00020910B0130910C012617370748F0611559
:1003F000710539F42091E8002E772093E80001C0C0
:10040000B901FC0120E06115710579F180910401C9
:100410008823F1F18530F1F18091E80083FD3CC043
:100420008091E80082FD2EC08091E80080FFEBCF34
:100430002091F3008091F20090E0922B61157105FC
:1004400051F08830910538F421912093F1006150EA
:1004500071090196F3CF21E0089709F020E080911F
:10046000E8008E778093E800CECF2111CFCF0AC06D
:1004700080910401882361F0853061F08091E8006B
:1004800083FD0AC08091E80082FFF2CF80E00895EA
:1004900082E0089583E0089581E0089520910B01A2
:1004A00030910C012617370748F06115710539F4B2
:1004B0002091E8002E772093E80001C0B901FC01EB
:1004C00020E06115710591F180910401882309F400
:1004D00040C0853009F43FC08091E80083FD3DC0F5
:1004E0008091E80082FD2FC08091E80080FFE9CF75
:1004F0002091F3008091F20090E0922B611571053C
:1005000059F08830910540F424912093F100319600
:10051000615071090196F2CF21E0089709F020E0BF
:100520008091E8008E778093E800CBCF2111CCCF6B
:100530000AC080910401882361F0853061F08091C8
:10054000E80083FD0AC08091E80082FFF2CF80E0DE
:10055000089582E0089583E0089581E00895982F3A
:10056000973068F59093E900981739F07091EC0096
:100570002091ED005091F00003C0242F762F50E021
:1005800021FD02C09F5FECCF3091EB003E7F3093A6
:10059000EB003091ED003D7F3093ED003091EB00AA
:1005A00031603093EB007093EC002093ED0050939A
:1005B000F0002091EE0027FDE5CF80E008958F70D8
:1005C0008093E90081E008958091050187FF11C0C3
:1005D0008091E80082FD05C0809104018111F8CF6F
:1005E00011C08091E8008B770BC0809104018823B3
:1005F00049F08091E80080FFF8CF8091E8008E7785
:100600008093E80008952091E4003091E50095E69C
:100610004091EC00842F817040FF23C08091E8005E
:1006200080FD1DC080910401882399F0853099F0E8
:100630008091EB0085FD11C04091E4005091E500F0
:100640002417350729F3915011F09A01E1CF84E086
:10065000089582E0089583E0089581E0089580E0A0
:1006600008954091E80042FFDDCF08950F931F9356
:10067000CF93DF934BD052D0C8EDD0E088818F77F5
:10068000888388818068888388818F7D888319BC6E
:1006900010920401109200011092020110920101C7
:1006A00000EE10E0F80180818B7F8083888181607B
:1006B000888342E060E080E052DFE1EEF0E080819C
:1006C0008E7F8083E2EEF0E0808181608083808194
:1006D00088608083F80180818E7F8083888180613B
:1006E0008883DF91CF911F910F910895E8EDF0E09D
:1006F00080818F7E8083E7EDF0E080818160808360
:1007000084E082BF81E080930301B0CFE8EDF0E0A8
:1007100080818E7F80831092E20008951092DA002B
:100720001092E10008951F920F920FB60F921124BC
:100730002F933F934F935F936F937F938F939F93E9
:10074000AF93BF93EF93FF938091E10082FF0AC0C4
:100750008091E20082FF06C08091E1008B7F809350
:10076000E10050D28091DA0080FF1DC08091D80056
:1007700080FF19C08091DA008E7F8093DA0080912B
:10078000D90080FF0CC080E189BD82E189BD09B438
:1007900000FEFDCF81E08093040148DD04C019BC58
:1007A0001092040145DD8091E10080FF18C0809126
:1007B000E20080FF14C08091E2008E7F8093E2000F
:1007C0008091E20080618093E2008091D800806295
:1007D0008093D80019BC85E08093040113D28091E6
:1007E000E10084FF2FC08091E20084FF2BC080E1F4
:1007F00089BD82E189BD09B400FEFDCF8091D8009A
:100800008F7D8093D8008091E1008F7E8093E100FE
:100810008091E2008F7E8093E2008091E20081600F
:100820008093E20080910001882311F084E007C0EA
:100830008091E30087FD02C081E001C083E08093E6
:100840000401E0D18091E10083FF27C08091E200A4
:1008500083FF23C08091E100877F8093E10082E0E5
:1008600080930401109200018091E1008E7F8093BB
:10087000E1008091E2008E7F8093E2008091E200AF
:1008800080618093E20042E060E080E068DE809179
:10089000F00088608093F000B5D1FF91EF91BF9197
:1008A000AF919F918F917F916F915F914F913F9108
:1008B0002F910F900FBE0F901F9018951F920F92BF
:1008C0000FB60F9211242F933F934F935F936F9323
:1008D0007F938F939F93AF93BF93CF93DF93EF93C8
:1008E000FF93C091E900CF708091EC00D82FD170B8
:1008F00080FDD0E81092E9008091F000877F80931E
:10090000F00078941ED01092E9008091F000886089
:100910008093F000CD2BCF70C093E900FF91EF9151
:10092000DF91CF91BF91AF919F918F917F916F9107
:100930005F914F913F912F910F900FBE0F901F909D
:1009400018951F93CF93DF93CDB7DEB7AA970FB655
:10095000F894DEBF0FBECDBFE5E0F1E08091F1007D
:10096000819321E0ED30F207C9F777DC8091E80050
:1009700083FF30C18091050190910601953009F403
:1009800083C030F49130A9F168F0933091F122C125
:10099000983009F4EFC0993009F4FBC0963009F0A3
:1009A00019C194C0803821F0823809F013C108C001
:1009B0008091010190910201992389F082600FC01A
:1009C000809109018F70873008F004C18093E9009D
:1009D0008091EB0085FB882780F91092E9009091C7
:1009E000E800977F9093E8008093F1001092F10067
:1009F000CCC0282F2D7F09F0EDC0882319F082305C
:100A000061F0E8C080910701813009F0E3C09330C4
:100A100009F080E0809302012EC0809107018111CE
:100A20002AC0809109018F702FEF280F263008F01F
:100A3000D1C08093E9002091EB0020FF1CC09330CF
:100A400021F48091EB00806214C09091EB009061E2
:100A50009093EB0021E030E0A90102C0440F551F44
:100A60008A95E2F74093EA001092EA008091EB0049
:100A700088608093EB001092E9008091E800877F06
:100A80008093E800A1DDA6C08111A4C010910701E8
:100A90001F778091E3008078812B8093E300809121
:100AA000E800877F8093E8008FDD8091E80080FF79
:100AB000FCCF8091E30080688093E300111102C0B5
:100AC00082E001C083E08093040184C080588230BA
:100AD00008F080C080910701909108018C3D53E09F
:100AE000950771F583E08A838AE289834FB7F8948A
:100AF000DE01139620E03EE051E2E32FF0E0509358
:100B00005700E49120FF03C0E295EF703F5FEF7064
:100B10008E2F90E0EA3010F0C79601C0C0968D93FA
:100B20009D932F5F243149F74FBF8091E800877F65
:100B30008093E8006AE270E0CE01019651DC14C0B7
:100B40006091090170910A01AE014F5F5F4F86DB32
:100B5000BC01892B09F43EC09091E800977F9093E7
:100B6000E80089819A819ADC8091E8008B778093F4
:100B7000E80030C0803871F58091E800877F80936D
:100B8000E800809100018093F1008091E8008E7769
:100B900077CF81111FC0809107019091080199279B
:100BA0000297C4F48091E800877F8093E8008091E9
:100BB00007018093000108DD80910001811106C0CA
:100BC0008091E30087FD02C081E001C084E0809352
:100BD000040130DB8091E80083FF0AC08091E800C7
:100BE000877F8093E8008091EB0080628093EB0028
:100BF000AA960FB6F894DEBF0FBECDBFDF91CF919E
:100C00001F9108950895CF9380910401882399F04E
:100C1000C091E900CF709091EC00892F817090FD18
:100C200080E8C82B1092E9008091E80083FD89DEFE
:0E0C3000CF70C093E900CF910895F894FFCFE4
:00000001FF
